:100000000C94B8000C94E0000C94E0000C94E00018
:100010000C94E0000C94E0000C94E0000C94E000E0
:100020000C94E0000C94E0000C94E0000C94E000D0
:100030000C94E0000C944A060C94E0000C94E00050
:100040000C94E0000C94E0000C9400060C94E0008A
:100050000C94E0000C94E0000C94E0000C94E000A0
:100060000C94E0000C94E0000C9406070C94E00063
:100070000C94E0000C94E0000C94E000084AD73B9C
:100080003BCE016E84BCBFFDC12F3D6C74319ABD67
:1000900056833DDA3D00C77F11BED9E4BB4C3E918B
:1000A0006BAAAABE000000803F072C7AA5BA6CC5D7
:1000B00090DA3B9365FC8BBC53F810FD3C56928361
:1000C0004DBD879D3AB63DCBC9BF5BBE73DA0FC944
:1000D0003F05A84CCDB2D44EB93836A9020C50B960
:1000E000918688083CA6AAAA2ABE000000803F008C
:1000F00000002100240027002A0000002200250023
:1001000028002B0000002000230026002900020206
:1001100002020202020204040404040404040303AD
:1001200003030303030301010101010101010102B2
:1001300004081020408001020408102040800102C1
:1001400004081020408001020408102040800000B4
:100150000002030000000000000005040908000080
:1001600000000000000000000000000000003A084D
:1001700011241FBECFEFD8E0DEBFCDBF11E0A0E05D
:10018000B1E0E0EFF1E202C005900D92A234B107B8
:10019000D9F722E0A2E4B1E001C01D92A235B20776
:1001A000E1F710E0C8EBD0E004C02197FE010E9407
:1001B000940CC73BD107C9F70E9456080C94F6105F
:1001C0000C940000843081F028F48230E9F0833010
:1001D000F9F00895883071F0893091F08530B9F4E4
:1001E000809180008F7D03C0809180008F77809305
:1001F000800008958091B0008F778093B0000895BB
:100200008091B0008F7DF9CF84B58F7784BD08953C
:1002100084B58F7DFBCFCF93DF93282F30E0F9019A
:10022000E25BFE4F8491F901E25DFE4FD491F9014A
:10023000E25FFE4FC491CC23A1F081110E94E20045
:10024000EC2FF0E0EE0FFF1FEC5FFE4FA591B49195
:10025000EC91ED2381E090E009F480E0DF91CF9113
:10026000089580E090E0FACF1F93CF93DF93282F7B
:1002700030E0F901E25BFE4F8491F901E25DFE4F4F
:10028000D491F901E25FFE4FC491CC23A9F0162F5F
:1002900081110E94E200EC2FF0E0EE0FFF1FE6500C
:1002A000FF4FA591B4918FB7F894EC91111108C04C
:1002B000D095DE23DC938FBFDF91CF911F910895FE
:1002C000DE2BF8CFCF93DF9390E0FC01E25DFE4F91
:1002D0002491825F9E4FFC0184918823D1F090E0AD
:1002E000880F991FFC01E051FF4FA591B491FC01CB
:1002F000E650FF4FC591D491623071F49FB7F894E6
:100300003C91822F809583238C93E8812E2B288328
:100310009FBFDF91CF9108958FB7F894EC912E2B6A
:100320002C938FBFF6CF1F93CF93DF93EC01162F43
:1003300088818C3008F050C061E0812F0E946201FA
:100340008881282F30E0F901EE0FFF1FE20FF31F25
:10035000E75EFD4F1F736081607C612B60839BE0D3
:10036000998397EE9A832CE0622F0E94880C829FDB
:10037000B001112430E020E0AB01420F531FFA011D
:10038000EE0FFF1FE40FF51FE75EFD4F908196FD16
:1003900016C02F5F3F4F2C30310571F781110FC010
:1003A0001092800082E0809381001092850010926C
:1003B0008400B19A80916F00826080936F00E88121
:1003C0008E2F90E0FC01EE0FFF1FE80FF91FE75E94
:1003D000FD4F8081806480838881DF91CF911F9160
:1003E00008953FB7F8948091150290911602A0915C
:1003F0001702B091180226B5A89B05C02F3F19F02F
:100400000196A11DB11D3FBFBA2FA92F982F882794
:10041000BC01CD01620F711D811D911D42E0660F6F
:10042000771F881F991F4A95D1F70895E091CA0157
:10043000F091CB01309729F01092C5011092C401C0
:1004400009940895CF93DF93AC01E091C801F09136
:10045000C9013097F1F09091C7018091C6019817BA
:10046000C0F090E0292F30E02617370754F4D90167
:10047000A85BBE4F240F351FE90128812C939F5F95
:10048000F1CF1092C7016093C601CB01DF91CF91EC
:100490000994DF91CF9108958F929F92AF92BF926E
:1004A000FF920F931F93CF93DF93FC01F0808BE0BB
:1004B0008F1508F44AC0828108E512E0081B110973
:1004C00087FD1395000F111F000F111F8181C8E8D0
:1004D000D0E0C81BD10987FDD395CC0FDD1FCC0F11
:1004E000DD1F4E010D2E000CAA08BB089801012E3D
:1004F000000C440B550B281939094A095B09DB012B
:100500000E944F0C24EB30E040E050E00E94250CAC
:10051000820E931EA41EB51E8C169D062CF0E801BB
:10052000801691060CF4E4012297CC0FDD1F2FB743
:10053000F8948F2D90E0FC01EE0FFF1FE80FF91FDC
:10054000E75EFD4FD283C1832FBFDF91CF911F9113
:100550000F91FF90BF90AF909F908F90089585ED81
:100560008093BC008091BC0084FDFCCF1092C3013D
:10057000089520918801260F3327331F213231053A
:10058000ECF42091C301FC0190E080E0243069F09C
:1005900082E00895A09188012191AC0148595E4FF5
:1005A000A40FB52FB11D2C930196861798F3809157
:1005B0008801680F6093880180E0089581E00895C4
:1005C0000895E091C7018091C601E81730F4F0E08A
:1005D000E85BFE4F808190E008958FEF9FEF0895D4
:1005E0009091C7018091C6012FEF3FEF981748F413
:1005F000E92FF0E0E85BFE4F208130E09F5F9093B1
:10060000C701C90108958091C6019091C701891B56
:10061000990B0895CF93DF93CB01EA01642F0E94D9
:10062000B902CE01DF91CF910895CF93DF931F924E
:10063000CDB7DEB7698361E0CE0101960E94B902B1
:1006400081E090E00F90DF91CF91089590E080E0FD
:1006500008959C019CE0EFE1F1E0A3EFB1E001908F
:100660000D929A95E1F79CE0F901AFEFB1E00190AE
:100670000D929A95E1F72FB7F8948091110290911D
:100680001202A0911302B09114022FBF80930B02AB
:1006900090930C02A0930D02B0930E02A62FB0E02F
:1006A00020E838EF4FEF5FEF0E94440C2FEF30E06F
:1006B00040E050E00E94250C2053384F4F4F5F4FD1
:1006C00020932B0130932C0140932D0150932E0148
:1006D00081E080930F02089520E030E044EB52E483
:1006E0006091B1017091B2018091B3019091B40118
:1006F0000E94AC0C0E94010E653B710514F064EB86
:1007000070E077FF02C070E060E08FE492E00E944A
:100710004C0220E030E044EB52E46091B50170916E
:10072000B6018091B7019091B8010E94AC0C0E9473
:10073000010E653B710514F064EB70E077FF02C0B9
:1007400070E060E08CE492E00E944C0220E030E037
:10075000A9016091B9017091BA018091BB0190919A
:10076000BC010E94AC0C0E94010E653B710514F0A7
:1007700064EB70E077FF02C070E060E089E492E033
:100780000C944C02FC019CE0A1EBB1E001900D92B5
:100790009A95E1F708950F931F93CF93DF93CDB709
:1007A000DEB72E970FB6F894DEBF0FBECDBF4091D7
:1007B00023015091240160912501709126018091BF
:1007C000270190912801A0912901B0912A0100915F
:1007D0001F011091200120912101309122010983F4
:1007E0001A832B833C834D835E836F83788789874D
:1007F0009A87AB87BC8780910F0291E089278D870C
:100800008091F201811182E08E874EE050E0BE01BE
:100810006F5F7F4F8DE392E00E940A032E960FB622
:10082000F894DEBF0FBECDBFDF91CF911F910F9126
:100830000895CF931092EC019091C6018091C70169
:10084000981791F0C091EC01C03270F48DE392E002
:100850000E94F00291E09C0F9093EC01EC2FF0E0ED
:10086000E453FE4F8083E8CF81E08093ED01CF9188
:100870000895CF93DF93CDB7DEB72C970FB6F894DA
:10088000DEBF0FBECDBF1092F20119821A821B8209
:100890001C821D821E821F82188680E090E0A4EBDD
:1008A000B2E489879A87AB87BC8760E8CE0101965E
:1008B0000E9429032C960FB6F894DEBF0FBECDBF61
:1008C000DF91CF9108954F925F926F927F928F92B6
:1008D0009F92AF92BF92CF92DF92EF92FF92CF930F
:1008E000DF93CDB7DEB72A970FB6F894DEBF0FBE01
:1008F000CDBFFC017A876987408051806280738018
:10090000C480D580E680F78080849184A284B384FB
:10091000A3019201C701B6010E942B0D69837A835E
:100920008B839C83A3019201C301B2010E94DD0F5E
:100930002B013C01A7019601C701B6010E94DD0F02
:100940009B01AC01C301B2010E94AC0C0E94581083
:1009500020E030E048E452E40E94AB0C2B013C0163
:10096000AC019B010E94DD0F6B017C01A50194018C
:10097000C501B4010E94DD0F9B01AC01C701B601A6
:100980000E94AC0C0E9458106B017C0120E030E00A
:1009900044E353E40E94D00F18160CF42FC120E05A
:1009A00030E040EA51E4C701B6010E948A0D87FD9C
:1009B00025C12FE632E143E85AE3C701B6010E94A0
:1009C0008A0D87FD1BC1C501B4019058A301920196
:1009D0000E942B0D6D837E838F839887A7019601DC
:1009E000C701B6010E94DD0F4B015C0120E030E041
:1009F00048EC55E40E94AC0C20E030E44CE156E4B5
:100A00000E94AB0C2B013C0120E030E040E253E4BB
:100A1000C701B6010E94DD0F9B01AC01C301B20109
:100A20000E948F0D9B01AC0160E070E080E89FE3C5
:100A30000E94930E9B01AC0160E070E080E89FEBA8
:100A40000E94740E0E949A0C6B017C01A501940116
:100A500060E070E280E896E40E94AB0C20E030E0B9
:100A60004AE756E40E948F0D9B01AC0160E070E004
:100A700080E89FE30E94930E9B01AC0160E070E070
:100A800080E89FEB0E94740E0E949A0C2B013C019F
:100A900020EE3EE245E652E469817A818B819C81B9
:100AA0000E94DD0F4B015C01A70196016D817E81E3
:100AB0008F8198850E94AB0C20EE3EE245E652E421
:100AC0000E94DD0F6B017C01A30192016BED7FE0C1
:100AD00089E490E40E94AB0C20EE3EE245E652E44D
:100AE0000E94DD0F2B013C0120E030E040E752EC9A
:100AF000C501B4010E948A0D87FD45C020E030E0A9
:100B000040E752E4C501B4010E94D00F18160CF45E
:100B100041C0E985FA8580829182A282B38220E079
:100B200030E044EB52ECC701B6010E948A0D87FD0C
:100B300038C020E030E044EB52E4C701B6010E9427
:100B4000D00F1816ACF1E985FA85C482D582E68209
:100B5000F78220E030E0A901C301B2010E948A0DB2
:100B600087FD2DC020E030E047E053E4C301B2012F
:100B70000E94D00F181634F5412C512C87E0682EB6
:100B800083E4782E1FC0812C912C40E7A42E42ECE8
:100B9000B42EBFCF812C912C30E7A32E32E4B32E9C
:100BA000B8CFC12CD12C24EBE22E22ECF22ECBCFED
:100BB000C12CD12C94EBE92E92E4F92EC4CF412C18
:100BC000512C3201E985FA8540865186628673860A
:100BD00081E02A960FB6F894DEBF0FBECDBFDF913D
:100BE000CF91FF90EF90DF90CF90BF90AF909F900C
:100BF0008F907F906F905F904F90089580E0E9CF45
:100C00001F920F920FB60F9211242F933F938F9341
:100C10009F93AF93BF938091110290911202A09184
:100C20001302B09114023091100223E0230F2D37EC
:100C300068F126E8230F0296A11DB11D2093100232
:100C40008093110290931202A0931302B0931402A6
:100C50008091150290911602A0911702B09118028E
:100C60000196A11DB11D8093150290931602A093C9
:100C70001702B0931802BF91AF919F918F913F914E
:100C80002F910F900FBE0F901F9018950196A11DE8
:100C9000B11DD4CF1F920F920FB60F9211242F9334
:100CA0003F934F935F936F937F938F939F93AF93F4
:100CB000BF93CF93DF93EF93FF938091AF01C091E8
:100CC000B001D0E087FF24C010928500109284000C
:100CD0008091AF018F5F8093AF018091AF01082EAB
:100CE000000C990B8C179D0724F48091AF018C3078
:100CF000C4F18091840090918500049680349C49D1
:100D000008F47AC08091840090918500049676C0A2
:100D10008091AF01082E000C990B8C179D07C4F62B
:100D2000E091AF018E2FEE0F990BFC01EE0FFF1F2C
:100D3000E80FF91FE75EFD4F808186FFC9CFE09184
:100D4000AF018E2FEE0F990BFC01EE0FFF1FE80F86
:100D5000F91FE75EFD4F808160E08F730E943401D0
:100D6000B7CF2091840030918500E091AF018E2FA4
:100D7000EE0F990BFC01EE0FFF1FE80FF91FE75E66
:100D8000FD4F81819281820F931F90938900809300
:100D90008800E091AF018E2FEE0F990BFC01EE0F52
:100DA000FF1FE80FF91FE75EFD4F808186FF11C02E
:100DB000E091AF018E2FEE0F990BFC01EE0FFF1F9C
:100DC000E80FF91FE75EFD4F808161E08F730E949D
:100DD0003401FF91EF91DF91CF91BF91AF919F913E
:100DE0008F917F916F915F914F913F912F910F90D4
:100DF0000FBE0F901F90189580E49CE99093890096
:100E0000809388008FEF8093AF01E3CF1F920F9202
:100E10000FB60F9211242F933F934F935F936F93CD
:100E20007F938F939F93AF93BF93EF93FF938091A3
:100E3000B900887F803609F44AC0F0F5883209F499
:100E4000A7C018F5803109F49BC0B8F4882309F4D1
:100E5000F3C0883009F494C0FF91EF91BF91AF9136
:100E60009F918F917F916F915F914F913F912F91C2
:100E70000F900FBE0F901F901895883109F488C00D
:100E8000803251F78093AB0114C0803409F499C0CB
:100E900040F48033B9F38833F9F68093AB0185ECE5
:100EA000AAC0803509F483C0883509F492C088341B
:100EB00099F60E94AF02D0CF883909F488C038F57E
:100EC000883729F050F4883611F0803729F683E00E
:100ED0008093C3011092AA0157C0883809F477C0E3
:100EE000803919F0803809F0B7CF8091AA0180329B
:100EF00008F06DC0E091AA0181E08E0F8093AA01F5
:100F00008091BB00F0E0E657FE4F80833DC0803B00
:100F100039F0E0F4803A09F473C0883A09F09CCFC4
:100F200084E08093C3011092890110928801E091BE
:100F3000BF01F091C00109958091880181110FC016
:100F400081E0809388011092680109C0803C09F417
:100F5000A6CF883C09F4A3CF883B09F07DCFE09170
:100F6000890181E08E0F80938901F0E0E859FE4FFE
:100F700080818093BB00909189018091880125C078
:100F80008091AE018093BB0085EC8093BC0064CF60
:100F90009091AD018091AC01981728F5E091AD01D9
:100FA00081E08E0F8093AD01F0E08081EBCFE09186
:100FB000AD0181E08E0F8093AD018091BB00F0E028
:100FC00080839091AD018091AC019817E8F285E89B
:100FD000DCCFE091AD0181E08E0F8093AD01809177
:100FE000BB00F0E080838091C201811162CF81E07B
:100FF0008093C10184EA8093BC001092C3012CCF7E
:1010000085EC8093BC001092C3018091AA018032CC
:1010100030F4E091AA01F0E0E657FE4F10826091B3
:10102000AA0170E0E091BD01F091BE018AE891E073
:1010300009951092AA0110CF1092AB013ACFFC0192
:101040009091B0019C3098F481E0890F8093B001B9
:101050009083892F90E0FC01EE0FFF1FE80FF91F2E
:10106000E75EFD4F88EB9BE09283818308958FEFCD
:1010700080830895EDE3F2E01382128288EE93E01C
:10108000A0E0B0E084839583A683B78383E391E0F7
:10109000918380838FE492E00E941F088CE492E0A9
:1010A0000E941F0889E492E00C941F08CF93DF93FD
:1010B000CDB7DEB7EA970FB6F894DEBF0FBECDBF4F
:1010C000789484B5836084BD85B5836085BD809147
:1010D0006E00816080936E0082E080938100809139
:1010E0008100816080938100809180008160809385
:1010F00080008091B10084608093B1008091B00045
:1011000081608093B00087E880937A001092C100DC
:1011100069E070E08FE492E00E9493016AE070E081
:101120008CE492E00E9493016BE070E089E492E02D
:101130000E9493011092B1011092B2011092B3017A
:101140001092B4011092B5011092B6011092B7013D
:101150001092B801C12CD12C54EBE52E52E4F52E9F
:10116000C092B901D092BA01E092BB01F092BC01E9
:101170000E946C0310921F01109220011092210115
:101180001092220110922301109224011092250145
:1011900010922601C0922701D0922801E0922901E5
:1011A000F0922A0110920F028FE191E00E94C20397
:1011B0001092F20162E08CE00E94620162E08DE038
:1011C0000E94620162E08EE00E9462010E94F101D1
:1011D0006B017C010E94F1016C197D098E099F0948
:1011E000683E734081059105A8F38CE00E940B01D5
:1011F0007C018DE00E940B018C018EE00E940B01AE
:101200006C011092C7011092C6011092C501109294
:10121000C4011092C30181E08093C2011092C10108
:1012200061E081E10E94340161E080E10E943401CB
:101230008091B9008E7F8093B9008091B9008D7F35
:101240008093B90088E48093B80085E48093BC0063
:1012500086E192E09093C0018093BF0182E292E028
:101260009093BE018093BD0121E030E0CD2811F0C4
:1012700030E020E0220F331F220F331F81E0EF28E0
:1012800009F080E08061822B21E030E0012B11F039
:1012900030E020E0220F331F822B880F8093BA00AA
:1012A00089E194E09093C9018093C8018BEC93E0AD
:1012B0009093CB018093CA0100E010E03324339473
:1012C0008091ED01882399F01092ED019091EC014D
:1012D000992369F08091CC01833009F42BC108F087
:1012E000BCC0813009F4D8C0823009F41BC18091A0
:1012F000F201882309F4ACC12FB7F8946091110270
:101300007091120280911302909114022FBFC0902D
:10131000EE01D090EF01E090F001F090F1016C1936
:101320007D098E099F090E94370E6B017C01609137
:1013300015017091160190E080E00E94370E9B012C
:10134000AC01C701B6010E948F0D209117013091A9
:1013500018014091190150911A010E94AC0C20E033
:1013600030E040E85FE30E94BD0E4B015C01C0909D
:101370001B01D0901C01E0901D01F0901E01A701FF
:1013800096010E948A0D40900501509006016090E0
:1013900007017090080187FFE6C020E030E040E0E0
:1013A0005FE360910D0170910E0180910F019091AA
:1013B00010010E94DD0F6FAB78AF89AF9AAFA70124
:1013C0009601C501B4010E948F0D9B01AC010E94E2
:1013D000AC0C9B01AC0160E070E080E89FE30E94F0
:1013E000AB0C9B01AC016FA978AD89AD9AAD0E94A1
:1013F000DD0F2091010130910201409103015091D4
:1014000004010E94AC0C6F8F78A389A39AA34BA20E
:101410005CA26DA27EA28091090190910A01A09127
:101420000B01B0910C018FA398A7A9A7BAA7BE0181
:101430006F5F7F4FCE014F960E946304882321F097
:10144000CE0101960E94C2030E946C030115110592
:1014500009F436CF0E94000033CF863009F46DC006
:10146000873009F467C0853009F041CF9F3108F417
:101470003ECF8EE1EDECF1E0DE01119601900D9290
:101480008A95E1F78EE1FE013196A1E0B1E001908D
:101490000D928A95E1F72BCF9D3008F428CF0E945A
:1014A0003904C090CD01D090CE01E090CF01F090F2
:1014B000D001CBAADCAAEDAAFEAA4091D10150919D
:1014C000D2016091D3017091D4014FA758AB69ABA1
:1014D0007AAB8091D5019091D601A091D701B091BE
:1014E000D8018BA79CA7ADA7BEA7CF8ED8A2E9A293
:1014F000FAA24BA35CA36DA37EA38FA398A7A9A771
:10150000BAA7BE016F5F7F4FCE014F960E94630462
:10151000882309F4ECCE60910001CE0101960E946F
:101520002903E5CE923008F4E2CE8091CD0180937C
:101530000001DDCE0E943904DACE2FB7F8948091F5
:10154000110290911202A0911302B09114022FBFC8
:101550008093EE019093EF01A093F001B093F1011D
:101560003092F201C4CEA7019601C501B4010E94D8
:10157000AB0C4B015C01A701960160E070E080E8D4
:101580009FE30E94AB0C9B01AC01C501B4010E941A
:101590008F0D6B017C0120E030E040E05FE3609163
:1015A0000D0170910E0180910F01909110010E9428
:1015B000DD0F4B015C01A7019601C701B6010E9436
:1015C000AC0C9B01AC0160E070E080E89FE30E94FE
:1015D000AB0C9B01AC01C501B4010E94DD0F9B0166
:1015E000AC01609101017091020180910301909121
:1015F00004010E94AB0C6F8F78A389A39AA34BA21E
:101600005CA26DA27EA22BED3FE049E450E4C7014D
:10161000B6010E94DD0F0E944A1020911101309105
:10162000120140911301509114010E94DD0F9B01A2
:10163000AC016091090170910A0180910B019091B8
:101640000C010E94AB0C6FA378A789A79AA7EFCED5
:1016500080910F02882309F4F7CE2FB7F894609198
:1016600011027091120280911302909114022FBF07
:10167000C0900B02D0900C02E0900D02F0900E0290
:101680006C197D098E099F09C0902B01D0902C0107
:10169000E0902D01F0902E016C157D058E059F05C3
:1016A00070F08CE0EFEFF1E0AFE1B1E001900D926E
:1016B0008A95E1F710920F028FE191E0C3CE0E946C
:1016C000370E4B015C01C701B6010E94370E9B012A
:1016D000AC01C501B4010E948F0D6B017C0120E0BB
:1016E00030E0A9010E948A0D18160CF0A3C020E07A
:1016F00030E040E85FE3C701B6010E94D00F87FFEA
:101700009DC020E030E040EC50E4C701B6010E94EB
:10171000DD0F20E030E040E751E40E94AB0CA70170
:1017200096010E94DD0F20E030E040E251E40E948B
:10173000AC0C4B015C01A7019601C701B6010E94E8
:10174000DD0FA70196010E94DD0F9B01AC01C501D1
:10175000B4010E94DD0F6B017C018090F301909039
:10176000F401A090F501B090F601A50194016091FB
:10177000FF017091000280910102909102020E948B
:10178000AB0CA70196010E94DD0FA50194010E94F8
:10179000AC0C60931F017093200180932101909302
:1017A00022018090F7019090F801A090F901B0908B
:1017B000FA01A501940160910302709104028091E5
:1017C0000502909106020E94AB0CA70196010E94AF
:1017D000DD0FA50194010E94AC0C6093230170936E
:1017E000240180932501909326018090FB01909025
:1017F000FC01A090FD01B090FE01A5019401609153
:101800000702709108028091090290910A020E94D9
:10181000AB0CA70196010E94DD0FA50194010E9467
:10182000AC0C609327017093280180932901909359
:101830002A0142CFC12CD12C76018FCFC12CD12CC3
:1018400080E8E82E8FE3F82E88CF052E97FB1EF454
:1018500000940E943C0C57FD07D00E94570C07FCD7
:1018600003D04EF40C943C0C509540953095219546
:101870003F4F4F4F5F4F08959095809570956195BC
:101880007F4F8F4F9F4F08950E94790CA59F900D19
:10189000B49F900DA49F800D911D11240895B7FF52
:1018A0000C94440C0E94440C821B930B0895A1E2FB
:1018B0001A2EAA1BBB1BFD010DC0AA1FBB1FEE1FCA
:1018C000FF1FA217B307E407F50720F0A21BB30B15
:1018D000E40BF50B661F771F881F991F1A9469F791
:1018E00060957095809590959B01AC01BD01CF01ED
:1018F0000895A29FB001B39FC001A39F700D811DE9
:101900001124911DB29F700D811D1124911D089508
:10191000991B79E004C0991F961708F0961B881F41
:101920007A95C9F780950895EE0FFF1F0590F49101
:10193000E02D09949F939F770E94060F0F9000203F
:1019400042F49058A2EA2AED3FE049E450E40E94B4
:10195000C30C0C94960F5058BB27AA270E94C30CA7
:101960000C94960F0E94880F38F00E948F0F20F081
:1019700039F49F3F19F426F40C945E0F0EF4E095B1
:10198000E7FB0C944A0FE92F0E94A70F58F3BA17F0
:10199000620773078407950720F079F4A6F50C9485
:1019A000C90F0EF4E0950B2EBA2FA02D0B01B90133
:1019B00090010C01CA01A0011124FF27591B99F0C5
:1019C000593F50F4503E68F11A16F040A22F232FD1
:1019D000342F4427585FF3CF469537952795A79521
:1019E000F0405395C9F77EF41F16BA0B620B730BC8
:1019F000840BBAF09150A1F0FF0FBB1F661F771F39
:101A0000881FC2F70EC0BA0F621F731F841F48F4ED
:101A1000879577956795B795F7959E3F08F0B0CF76
:101A20009395880F08F09927EE0F9795879508955D
:101A30000E94880F60F080E891E009F49EEF0E9418
:101A40008F0F28F040E851E071F45EEF0CC00C9469
:101A50005E0F0C94C90FE92FE0780E94A70F40F3A6
:101A6000092E052AB1F3261737074807590738F01A
:101A70000E2E07F8E02569F0E025E0640AC0EF6368
:101A800007F8009407FADB01B9019D01DC01CA01E6
:101A9000AD01EF930E94A60D0E94960F0E945B0D70
:101AA0005F91552339F02BED3FE049E450FD49ECBF
:101AB0000C94AC0C0895DF93DD27B92FBF7740E875
:101AC0005FE31616170648075B0718F4D92F0E9424
:101AD000D50F9F938F937F936F930E949810ECE79D
:101AE000F0E00E94610F0E94960F2F913F914F915D
:101AF0005F910E94F00FDD2351F09058A2EA2AED89
:101B00003FE049EC5FE3D0785D270E94C30CDF9192
:101B10000C94960F0E94260F08F481E008950E940D
:101B2000A30D0C94960F0E948F0F58F00E94880FFF
:101B300040F029F45F3F29F00C944A0F51110C94A6
:101B4000CA0F0C945E0F0E94A70F68F39923B1F39C
:101B5000552391F3951B550BBB27AA2762177307D3
:101B6000840738F09F5F5F4F220F331F441FAA1F67
:101B7000A9F335D00E2E3AF0E0E832D09150504023
:101B8000E695001CCAF72BD0FE2F29D0660F771FD1
:101B9000881FBB1F261737074807AB07B0E809F0B7
:101BA000BB0B802DBF01FF2793585F4F3AF09E3F3C
:101BB000510578F00C944A0F0C94CA0F5F3FE4F380
:101BC000983ED4F3869577956795B795F7959F5F7F
:101BD000C9F7880F911D9695879597F90895E1E0CB
:101BE000660F771F881FBB1F621773078407BA072A
:101BF00020F0621B730B840BBA0BEE1F88F7E09585
:101C000008950E94080E6894B1110C94CA0F0895AB
:101C10000E94AF0F88F09F5798F0B92F9927B751BE
:101C2000B0F0E1F0660F771F881F991F1AF0BA9580
:101C3000C9F714C0B13091F00E94C90FB1E0089506
:101C40000C94C90F672F782F8827B85F39F0B93FF8
:101C5000CCF3869577956795B395D9F73EF4909533
:101C60008095709561957F4F8F4F9F4F0895E894B1
:101C700009C097FB3EF490958095709561957F4FD4
:101C80008F4F9F4F9923A9F0F92F96E9BB27939582
:101C9000F695879577956795B795F111F8CFFAF492
:101CA000BB0F11F460FF1BC06F5F7F4F8F4F9F4FC3
:101CB00016C0882311F096E911C0772321F09EE821
:101CC000872F762F05C0662371F096E8862F70E087
:101CD00060E02AF09A95660F771F881FDAF7880F61
:101CE0009695879597F90895990FBB0B550FAA0BF9
:101CF000E0E8FEEF16161706E807F90770F012166F
:101D00001306E407F50760F0BA173CF049F46217D0
:101D1000730784079507A7951BF4B901CA01BA2F69
:101D2000B69597950895990FBB0B550FAA0BE0E850
:101D3000FEEF16161706E807F90770F012161306DD
:101D4000E407F50760F0BA1754F031F426173707A7
:101D500048075907A7951BF4B901CA01BA2FB695D0
:101D6000979508950E94880F20F019F00E948F0F18
:101D700050F40C945E0F0C94CA0FE92F0E94A70F29
:101D800088F35523B1F3E7FB6217730784079507C0
:101D9000A8F189F3E92FFF2788232AF03197660FEE
:101DA000771F881FDAF7952F5527442332F091507B
:101DB0005040220F331F441FD2F7BB27E91BF50BFE
:101DC000621B730B840BB109B1F222F4620F731F13
:101DD000841FB11D31972AF0660F771F881FBB1F24
:101DE000EFCF9150504062F041F0882332F0660FFF
:101DF000771F881F91505040C1F793950C94500F56
:101E00008695779567959F5FD9F7F7CFDF93CF9347
:101E10001F930F938B01EC01E9EAF0E00E94610F40
:101E20000E94960F9801AE018B01EC0160E070E01A
:101E300080E89FE30E94AB0C0E9458109801AE010D
:101E40000F911F91CF91DF910C94F00F990F000823
:101E5000550FAA0BE0E8FEEF16161706E807F9077C
:101E6000C0F012161306E407F50798F0621B730B17
:101E7000840B950B39F40A2661F0232B242B252B98
:101E800021F408950A2609F4A140A6958FEF811D3B
:101E9000811D089597F99F6780E870E060E00895DC
:101EA0009F3F31F0915020F4879577956795B795CE
:101EB000880F911D9695879597F908959FEF80EC6F
:101EC0000895DF93CF931F930F93FF92EF92DF92CA
:101ED0007B018C01689406C0DA2EEF010E94F00F9E
:101EE000FE01E894A5912591359145915591A6F370
:101EF000EF010E94C30CFE019701A801DA9469F773
:101F0000DF90EF90FF900F911F91CF91DF91089597
:101F100000240A94161617061806090608950024C8
:101F20000A9412161306140605060895092E039442
:101F3000000C11F4882352F0BB0F40F4BF2B11F4B6
:101F400060FF04C06F5F7F4F8F4F9F4F089557FD15
:101F50009058440F551F59F05F3F71F04795880F17
:101F600097FB991F61F09F3F79F0879508951216AE
:101F700013061406551FF2CF4695F1DF08C016165A
:101F800017061806991FF1CF86957105610508940B
:101F90000895E894BB2766277727CB0197F9089522
:101FA0000E94260F08F48FEF08959B01AC0160E0BA
:101FB00070E080E89FE30C948F0D0E94F00F0C946A
:101FC000960F0E94880F38F00E948F0F20F0952303
:101FD00011F00C944A0F0C945E0F11240C94CA0F4C
:101FE0000E94A70F70F3959FC1F3950F50E0551F06
:101FF000629FF001729FBB27F00DB11D639FAA275E
:10200000F00DB11DAA1F649F6627B00DA11D661FAC
:10201000829F2227B00DA11D621F739FB00DA11DCD
:10202000621F839FA00D611D221F749F3327A00D87
:10203000611D231F849F600D211D822F762F6A2F23
:1020400011249F5750409AF0F1F088234AF0EE0F88
:10205000FF1FBB1F661F771F881F91505040A9F7B5
:102060009E3F510580F00C944A0F0C94CA0F5F3FBD
:10207000E4F3983ED4F3869577956795B795F795F1
:10208000E7959F5FC1F7FE2B880F911D9695879569
:1020900097F908959F930E94A5100F9007FCEE5F9B
:1020A0000C94CE1019F416F40C945E0F0C94500F8F
:1020B0000E94AF0FB8F39923C9F3B6F39F57550B9E
:1020C00087FF0E949C100024A0E640EA90018058FF
:1020D0005695979528F4805C660F771F881F20F02F
:1020E00026173707480730F4621B730B840B20292F
:1020F00031294A2BA69517940794202531254A2784
:1021000058F7660F771F881F20F0261737074807F4
:1021100030F4620B730B840B200D311D411DA09513
:1021200081F7B901842F9158880F96958795089566
:102130009B01AC010C94DD0F91505040660F771F4E
:10214000881FD2F708950C945E0F0E94AF0FD8F34A
:10215000E894E0E0BB279F57F0F02AED3FE049EC20
:1021600006C0EE0FBB0F661F771F881F28F0B23A1C
:1021700062077307840728F0B25A620B730B840B53
:10218000E3959A9572F7803830F49A95BB0F661FE5
:10219000771F881FD2F790480C94520FEF93E0FFFF
:1021A00007C0A2EA2AED3FE049EC5FEB0E94C30CB6
:1021B0000E94960F0F90039401FC9058E1EDF0E01F
:1021C0000C94E2109F938F937F936F93FF93EF9301
:1021D0009B01AC010E94DD0FEF91FF910E94610F06
:1021E0002F913F914F915F910C94DD0FF894FFCFA9
:1021F000800000F042000000000000A0C20000705B
:10220000420000F041E803000000009A99193F00E5
:10221000000000000000000000B442F401000000D3
:1022200000000015030A032603E0020303F002E1A5
:022230000200AA
:00000001FF
